{
    "_format": "hh-sol-artifact-1",
    "contractName": "MiniRaffle",
    "sourceName": "contracts/MiniRaffle.sol",
    "abi": [
        {
            "anonymous": false,
            "inputs": [
                {
                    "indexed": false,
                    "internalType": "address",
                    "name": "previousAdmin",
                    "type": "address"
                },
                {
                    "indexed": false,
                    "internalType": "address",
                    "name": "newAdmin",
                    "type": "address"
                }
            ],
            "name": "AdminChanged",
            "type": "event"
        },
        {
            "anonymous": false,
            "inputs": [
                {
                    "indexed": true,
                    "internalType": "address",
                    "name": "beacon",
                    "type": "address"
                }
            ],
            "name": "BeaconUpgraded",
            "type": "event"
        },
        {
            "anonymous": false,
            "inputs": [
                {
                    "indexed": false,
                    "internalType": "uint8",
                    "name": "version",
                    "type": "uint8"
                }
            ],
            "name": "Initialized",
            "type": "event"
        },
        {
            "anonymous": false,
            "inputs": [
                {
                    "indexed": true,
                    "internalType": "uint256",
                    "name": "roundId",
                    "type": "uint256"
                },
                {
                    "indexed": true,
                    "internalType": "address",
                    "name": "participant",
                    "type": "address"
                }
            ],
            "name": "ParticipantJoined",
            "type": "event"
        },
        {
            "anonymous": false,
            "inputs": [
                {
                    "indexed": true,
                    "internalType": "uint256",
                    "name": "roundId",
                    "type": "uint256"
                }
            ],
            "name": "RaffleClosed",
            "type": "event"
        },
        {
            "anonymous": false,
            "inputs": [
                {
                    "indexed": true,
                    "internalType": "uint256",
                    "name": "roundId",
                    "type": "uint256"
                },
                {
                    "indexed": false,
                    "internalType": "uint256",
                    "name": "witnetBlock",
                    "type": "uint256"
                }
            ],
            "name": "RandomnessRequested",
            "type": "event"
        },
        {
            "anonymous": false,
            "inputs": [
                {
                    "indexed": true,
                    "internalType": "uint256",
                    "name": "roundId",
                    "type": "uint256"
                },
                {
                    "indexed": false,
                    "internalType": "uint256",
                    "name": "startTime",
                    "type": "uint256"
                },
                {
                    "indexed": false,
                    "internalType": "uint256",
                    "name": "endTime",
                    "type": "uint256"
                },
                {
                    "indexed": false,
                    "internalType": "uint256",
                    "name": "rewardPool",
                    "type": "uint256"
                },
                {
                    "indexed": false,
                    "internalType": "contract IERC20",
                    "name": "rewardToken",
                    "type": "address"
                },
                {
                    "indexed": false,
                    "internalType": "uint256",
                    "name": "maxTickets",
                    "type": "uint256"
                },
                {
                    "indexed": false,
                    "internalType": "uint256",
                    "name": "ticketCostPoints",
                    "type": "uint256"
                }
            ],
            "name": "RoundCreated",
            "type": "event"
        },
        {
            "anonymous": false,
            "inputs": [
                {
                    "indexed": true,
                    "internalType": "address",
                    "name": "implementation",
                    "type": "address"
                }
            ],
            "name": "Upgraded",
            "type": "event"
        },
        {
            "anonymous": false,
            "inputs": [
                {
                    "indexed": true,
                    "internalType": "uint256",
                    "name": "roundId",
                    "type": "uint256"
                },
                {
                    "indexed": false,
                    "internalType": "address",
                    "name": "winner",
                    "type": "address"
                }
            ],
            "name": "WinnerSelected",
            "type": "event"
        },
        {
            "inputs": [],
            "name": "RNG",
            "outputs": [
                {
                    "internalType": "contract IWitnetRandomness",
                    "name": "",
                    "type": "address"
                }
            ],
            "stateMutability": "view",
            "type": "function"
        },
        {
            "inputs": [],
            "name": "cUSD",
            "outputs": [
                {
                    "internalType": "contract IERC20",
                    "name": "",
                    "type": "address"
                }
            ],
            "stateMutability": "view",
            "type": "function"
        },
        {
            "inputs": [
                {
                    "internalType": "uint256",
                    "name": "_roundId",
                    "type": "uint256"
                }
            ],
            "name": "closeRaffle",
            "outputs": [],
            "stateMutability": "nonpayable",
            "type": "function"
        },
        {
            "inputs": [
                {
                    "internalType": "uint256",
                    "name": "_startTime",
                    "type": "uint256"
                },
                {
                    "internalType": "uint256",
                    "name": "_duration",
                    "type": "uint256"
                },
                {
                    "internalType": "uint32",
                    "name": "_maxTickets",
                    "type": "uint32"
                },
                {
                    "internalType": "contract IERC20",
                    "name": "_token",
                    "type": "address"
                },
                {
                    "internalType": "uint256",
                    "name": "_rewardPool",
                    "type": "uint256"
                },
                {
                    "internalType": "uint256",
                    "name": "_ticketCostPoints",
                    "type": "uint256"
                }
            ],
            "name": "createRaffleRound",
            "outputs": [],
            "stateMutability": "nonpayable",
            "type": "function"
        },
        {
            "inputs": [
                {
                    "internalType": "uint256",
                    "name": "_roundId",
                    "type": "uint256"
                }
            ],
            "name": "drawWinner",
            "outputs": [],
            "stateMutability": "nonpayable",
            "type": "function"
        },
        {
            "inputs": [
                {
                    "internalType": "uint256",
                    "name": "_roundId",
                    "type": "uint256"
                }
            ],
            "name": "getActiveRound",
            "outputs": [
                {
                    "internalType": "uint256",
                    "name": "roundId",
                    "type": "uint256"
                },
                {
                    "internalType": "uint256",
                    "name": "startTime",
                    "type": "uint256"
                },
                {
                    "internalType": "uint256",
                    "name": "endTime",
                    "type": "uint256"
                },
                {
                    "internalType": "uint32",
                    "name": "maxTickets",
                    "type": "uint32"
                },
                {
                    "internalType": "uint32",
                    "name": "totalTickets",
                    "type": "uint32"
                },
                {
                    "internalType": "contract IERC20",
                    "name": "rewardToken",
                    "type": "address"
                },
                {
                    "internalType": "uint256",
                    "name": "rewardPool",
                    "type": "uint256"
                },
                {
                    "internalType": "uint256",
                    "name": "ticketCostPoints",
                    "type": "uint256"
                },
                {
                    "internalType": "bool",
                    "name": "winnerSelected",
                    "type": "bool"
                }
            ],
            "stateMutability": "view",
            "type": "function"
        },
        {
            "inputs": [
                {
                    "internalType": "address",
                    "name": "_miniPoints",
                    "type": "address"
                },
                {
                    "internalType": "address",
                    "name": "_cUSD",
                    "type": "address"
                },
                {
                    "internalType": "address",
                    "name": "_usdt",
                    "type": "address"
                },
                {
                    "internalType": "address",
                    "name": "_owner",
                    "type": "address"
                }
            ],
            "name": "initialize",
            "outputs": [],
            "stateMutability": "nonpayable",
            "type": "function"
        },
        {
            "inputs": [
                {
                    "internalType": "uint256",
                    "name": "_roundId",
                    "type": "uint256"
                },
                {
                    "internalType": "uint32",
                    "name": "_ticketCount",
                    "type": "uint32"
                }
            ],
            "name": "joinRaffle",
            "outputs": [],
            "stateMutability": "nonpayable",
            "type": "function"
        },
        {
            "inputs": [],
            "name": "miniPoints",
            "outputs": [
                {
                    "internalType": "contract IMiniPoints",
                    "name": "",
                    "type": "address"
                }
            ],
            "stateMutability": "view",
            "type": "function"
        },
        {
            "inputs": [],
            "name": "owner",
            "outputs": [
                {
                    "internalType": "address",
                    "name": "",
                    "type": "address"
                }
            ],
            "stateMutability": "view",
            "type": "function"
        },
        {
            "inputs": [],
            "name": "proxiableUUID",
            "outputs": [
                {
                    "internalType": "bytes32",
                    "name": "",
                    "type": "bytes32"
                }
            ],
            "stateMutability": "view",
            "type": "function"
        },
        {
            "inputs": [
                {
                    "internalType": "uint256",
                    "name": "_roundId",
                    "type": "uint256"
                }
            ],
            "name": "requestRoundRandomness",
            "outputs": [],
            "stateMutability": "payable",
            "type": "function"
        },
        {
            "inputs": [],
            "name": "roundIdCounter",
            "outputs": [
                {
                    "internalType": "uint256",
                    "name": "",
                    "type": "uint256"
                }
            ],
            "stateMutability": "view",
            "type": "function"
        },
        {
            "inputs": [
                {
                    "internalType": "address",
                    "name": "newOwner",
                    "type": "address"
                }
            ],
            "name": "transferOwnership",
            "outputs": [],
            "stateMutability": "nonpayable",
            "type": "function"
        },
        {
            "inputs": [
                {
                    "internalType": "address",
                    "name": "newImplementation",
                    "type": "address"
                }
            ],
            "name": "upgradeTo",
            "outputs": [],
            "stateMutability": "nonpayable",
            "type": "function"
        },
        {
            "inputs": [
                {
                    "internalType": "address",
                    "name": "newImplementation",
                    "type": "address"
                },
                {
                    "internalType": "bytes",
                    "name": "data",
                    "type": "bytes"
                }
            ],
            "name": "upgradeToAndCall",
            "outputs": [],
            "stateMutability": "payable",
            "type": "function"
        },
        {
            "inputs": [],
            "name": "usdt",
            "outputs": [
                {
                    "internalType": "contract IERC20",
                    "name": "",
                    "type": "address"
                }
            ],
            "stateMutability": "view",
            "type": "function"
        }
    ],
    "bytecode": "0x60a06040523073ffffffffffffffffffffffffffffffffffffffff1660809073ffffffffffffffffffffffffffffffffffffffff1681525034801561004357600080fd5b506080516147f161007b60003960008181610cee01528181610d7c01528181610e7601528181610f040152610fb401526147f16000f3fe6080604052600436106100fe5760003560e01c80635ee49b8f11610095578063df5cf2b111610064578063df5cf2b1146102df578063e84daf0a14610324578063f2fde38b1461034f578063f714922014610378578063f8c8765e146103a3576100fe565b80635ee49b8f1461024657806360b2a56a1461026257806370db94fe1461028b5780638da5cb5b146102b4576100fe565b80633423ce82116100d15780633423ce82146101ad5780633659cfe6146101d65780634f1ef286146101ff57806352d1902d1461021b576100fe565b80631fccf67214610103578063234d00011461012e57806324214191146101575780632f48ab7d14610182575b600080fd5b34801561010f57600080fd5b506101186103cc565b6040516101259190612d4b565b60405180910390f35b34801561013a57600080fd5b5061015560048036038101906101509190612db0565b6103f2565b005b34801561016357600080fd5b5061016c6107bf565b6040516101799190612dec565b60405180910390f35b34801561018e57600080fd5b506101976107c5565b6040516101a49190612d4b565b60405180910390f35b3480156101b957600080fd5b506101d460048036038101906101cf9190612e43565b6107eb565b005b3480156101e257600080fd5b506101fd60048036038101906101f89190612ec1565b610cec565b005b61021960048036038101906102149190613034565b610e74565b005b34801561022757600080fd5b50610230610fb0565b60405161023d91906130a9565b60405180910390f35b610260600480360381019061025b9190612db0565b611069565b005b34801561026e57600080fd5b5061028960048036038101906102849190612db0565b611251565b005b34801561029757600080fd5b506102b260048036038101906102ad9190613102565b6118ba565b005b3480156102c057600080fd5b506102c9611ba7565b6040516102d6919061319e565b60405180910390f35b3480156102eb57600080fd5b5061030660048036038101906103019190612db0565b611bcd565b60405161031b999897969594939291906131e3565b60405180910390f35b34801561033057600080fd5b50610339611cd8565b6040516103469190613291565b60405180910390f35b34801561035b57600080fd5b5061037660048036038101906103719190612ec1565b611cfe565b005b34801561038457600080fd5b5061038d611e41565b60405161039a91906132cd565b60405180910390f35b3480156103af57600080fd5b506103ca60048036038101906103c591906132e8565b611e59565b005b609960009054906101000a900473ffffffffffffffffffffffffffffffffffffffff1681565b6103fa612157565b806000609d60008381526020019081526020016000206000015403610454576040517f08c379a000000000000000000000000000000000000000000000000000000000815260040161044b906133ac565b60405180910390fd5b6000609d600084815260200190815260200160002090508060070160009054906101000a900460ff166104bc576040517f08c379a00000000000000000000000000000000000000000000000000000000081526004016104b390613418565b60405180910390fd5b80600201544211610502576040517f08c379a00000000000000000000000000000000000000000000000000000000081526004016104f990613484565b60405180910390fd5b603c8160030160009054906101000a900463ffffffff1663ffffffff1661052991906134d3565b60648260090160009054906101000a900463ffffffff1661054a9190613515565b63ffffffff1610610590576040517f08c379a00000000000000000000000000000000000000000000000000000000081526004016105879061359e565b60405180910390fd5b60005b81600601805490508110156107675760008260060182815481106105ba576105b96135be565b5b9060005260206000200160009054906101000a900473ffffffffffffffffffffffffffffffffffffffff16905060008360080160008373ffffffffffffffffffffffffffffffffffffffff1673ffffffffffffffffffffffffffffffffffffffff16815260200190815260200160002060009054906101000a900463ffffffff16905060008163ffffffff16111561075857600084600501548263ffffffff1661066491906134d3565b9050609860009054906101000a900473ffffffffffffffffffffffffffffffffffffffff1673ffffffffffffffffffffffffffffffffffffffff166340c10f1984836040518363ffffffff1660e01b81526004016106c39291906135ed565b600060405180830381600087803b1580156106dd57600080fd5b505af11580156106f1573d6000803e3d6000fd5b5050505060008560080160008573ffffffffffffffffffffffffffffffffffffffff1673ffffffffffffffffffffffffffffffffffffffff16815260200190815260200160002060006101000a81548163ffffffff021916908363ffffffff160217905550505b50508080600101915050610593565b5060008160070160006101000a81548160ff021916908315150217905550827f2a7d48246875b5f17dc9944def25fc8fe90e524ca2165e290ffdc0e44a0bf8b660405160405180910390a250506107bc6121a6565b50565b609c5481565b609a60009054906101000a900473ffffffffffffffffffffffffffffffffffffffff1681565b816000609d60008381526020019081526020016000206000015403610845576040517f08c379a000000000000000000000000000000000000000000000000000000000815260040161083c906133ac565b60405180910390fd5b61084d612157565b6000609d600085815260200190815260200160002090508060070160009054906101000a900460ff166108b5576040517f08c379a00000000000000000000000000000000000000000000000000000000081526004016108ac90613662565b60405180910390fd5b806001015442101580156108cd575080600201544211155b61090c576040517f08c379a0000000000000000000000000000000000000000000000000000000008152600401610903906136ce565b60405180910390fd5b8060030160009054906101000a900463ffffffff1663ffffffff16838260090160009054906101000a900463ffffffff1661094791906136ee565b63ffffffff16111561098e576040517f08c379a000000000000000000000000000000000000000000000000000000000815260040161098590613772565b60405180910390fd5b60008363ffffffff1682600501546109a691906134d3565b905080609860009054906101000a900473ffffffffffffffffffffffffffffffffffffffff1673ffffffffffffffffffffffffffffffffffffffff166370a08231336040518263ffffffff1660e01b8152600401610a04919061319e565b602060405180830381865afa158015610a21573d6000803e3d6000fd5b505050506040513d601f19601f82011682018060405250810190610a4591906137a7565b1015610a86576040517f08c379a0000000000000000000000000000000000000000000000000000000008152600401610a7d90613820565b60405180910390fd5b609860009054906101000a900473ffffffffffffffffffffffffffffffffffffffff1673ffffffffffffffffffffffffffffffffffffffff16639dc29fac33836040518363ffffffff1660e01b8152600401610ae39291906135ed565b600060405180830381600087803b158015610afd57600080fd5b505af1158015610b11573d6000803e3d6000fd5b5050505060008260080160003373ffffffffffffffffffffffffffffffffffffffff1673ffffffffffffffffffffffffffffffffffffffff16815260200190815260200160002060009054906101000a900463ffffffff1663ffffffff1603610bda5781600601339080600181540180825580915050600190039060005260206000200160009091909190916101000a81548173ffffffffffffffffffffffffffffffffffffffff021916908373ffffffffffffffffffffffffffffffffffffffff1602179055505b838260080160003373ffffffffffffffffffffffffffffffffffffffff1673ffffffffffffffffffffffffffffffffffffffff16815260200190815260200160002060008282829054906101000a900463ffffffff16610c3a91906136ee565b92506101000a81548163ffffffff021916908363ffffffff160217905550838260090160008282829054906101000a900463ffffffff16610c7b91906136ee565b92506101000a81548163ffffffff021916908363ffffffff1602179055503373ffffffffffffffffffffffffffffffffffffffff16857f7dd8cb04159701bc1976c246434d7d96812782e7489e6c5c34db49a388fe9e8060405160405180910390a35050610ce76121a6565b505050565b7f000000000000000000000000000000000000000000000000000000000000000073ffffffffffffffffffffffffffffffffffffffff163073ffffffffffffffffffffffffffffffffffffffff1603610d7a576040517f08c379a0000000000000000000000000000000000000000000000000000000008152600401610d71906138b2565b60405180910390fd5b7f000000000000000000000000000000000000000000000000000000000000000073ffffffffffffffffffffffffffffffffffffffff16610db96121b0565b73ffffffffffffffffffffffffffffffffffffffff1614610e0f576040517f08c379a0000000000000000000000000000000000000000000000000000000008152600401610e0690613944565b60405180910390fd5b610e1881612207565b610e7181600067ffffffffffffffff811115610e3757610e36612f09565b5b6040519080825280601f01601f191660200182016040528015610e695781602001600182028036833780820191505090505b50600061229a565b50565b7f000000000000000000000000000000000000000000000000000000000000000073ffffffffffffffffffffffffffffffffffffffff163073ffffffffffffffffffffffffffffffffffffffff1603610f02576040517f08c379a0000000000000000000000000000000000000000000000000000000008152600401610ef9906138b2565b60405180910390fd5b7f000000000000000000000000000000000000000000000000000000000000000073ffffffffffffffffffffffffffffffffffffffff16610f416121b0565b73ffffffffffffffffffffffffffffffffffffffff1614610f97576040517f08c379a0000000000000000000000000000000000000000000000000000000008152600401610f8e90613944565b60405180910390fd5b610fa082612207565b610fac8282600161229a565b5050565b60007f000000000000000000000000000000000000000000000000000000000000000073ffffffffffffffffffffffffffffffffffffffff163073ffffffffffffffffffffffffffffffffffffffff1614611040576040517f08c379a0000000000000000000000000000000000000000000000000000000008152600401611037906139d6565b60405180910390fd5b7f360894a13ba1a3210667c828492db98dca3e2076cc3735a920a3ca505d382bbc60001b905090565b806000609d600083815260200190815260200160002060000154036110c3576040517f08c379a00000000000000000000000000000000000000000000000000000000081526004016110ba906133ac565b60405180910390fd5b6000609d60008481526020019081526020016000209050600081600a015414611121576040517f08c379a000000000000000000000000000000000000000000000000000000000815260040161111890613a42565b60405180910390fd5b600073c0ffee98ad1434acbdb894bbb752e138c1006fab73ffffffffffffffffffffffffffffffffffffffff1663699b328a346040518263ffffffff1660e01b815260040160206040518083038185885af1158015611184573d6000803e3d6000fd5b50505050506040513d601f19601f820116820180604052508101906111a991906137a7565b90504382600a01819055503481101561120f573373ffffffffffffffffffffffffffffffffffffffff166108fc82346111e29190613a62565b9081150290604051600060405180830381858888f1935050505015801561120d573d6000803e3d6000fd5b505b837f3d94fecedaa4f90b8bd459797adb95f5bb11426025c5541390d9ccc1ad1b60a183600a01546040516112439190612dec565b60405180910390a250505050565b611259612157565b806000609d600083815260200190815260200160002060000154036112b3576040517f08c379a00000000000000000000000000000000000000000000000000000000081526004016112aa906133ac565b60405180910390fd5b6000609d600084815260200190815260200160002090508060070160009054906101000a900460ff1661131b576040517f08c379a000000000000000000000000000000000000000000000000000000000815260040161131290613662565b60405180910390fd5b8060070160019054906101000a900460ff161561136d576040517f08c379a000000000000000000000000000000000000000000000000000000000815260040161136490613ae2565b60405180910390fd5b80600201544211806113b257508060030160009054906101000a900463ffffffff1663ffffffff168160090160009054906101000a900463ffffffff1663ffffffff16145b6113f1576040517f08c379a00000000000000000000000000000000000000000000000000000000081526004016113e890613b4e565b60405180910390fd5b60006064603c8360030160009054906101000a900463ffffffff1663ffffffff1661141c91906134d3565b6114269190613b9d565b9050808260090160009054906101000a900463ffffffff1663ffffffff161015611485576040517f08c379a000000000000000000000000000000000000000000000000000000000815260040161147c90613c1a565b60405180910390fd5b600082600a015414158015611528575073c0ffee98ad1434acbdb894bbb752e138c1006fab73ffffffffffffffffffffffffffffffffffffffff16639bc86fec83600a01546040518263ffffffff1660e01b81526004016114e69190612dec565b602060405180830381865afa158015611503573d6000803e3d6000fd5b505050506040513d601f19601f820116820180604052508101906115279190613c66565b5b611567576040517f08c379a000000000000000000000000000000000000000000000000000000000815260040161155e90613cdf565b60405180910390fd5b600073c0ffee98ad1434acbdb894bbb752e138c1006fab73ffffffffffffffffffffffffffffffffffffffff166324cbbfc18460090160009054906101000a900463ffffffff16600086600a01546040518463ffffffff1660e01b81526004016115d393929190613d3a565b602060405180830381865afa1580156115f0573d6000803e3d6000fd5b505050506040513d601f19601f820116820180604052508101906116149190613d86565b63ffffffff1690506116268382612408565b8360090160046101000a81548173ffffffffffffffffffffffffffffffffffffffff021916908373ffffffffffffffffffffffffffffffffffffffff160217905550609b60009054906101000a900473ffffffffffffffffffffffffffffffffffffffff1673ffffffffffffffffffffffffffffffffffffffff168360030160049054906101000a900473ffffffffffffffffffffffffffffffffffffffff1673ffffffffffffffffffffffffffffffffffffffff160361179d57609860009054906101000a900473ffffffffffffffffffffffffffffffffffffffff1673ffffffffffffffffffffffffffffffffffffffff166340c10f198460090160049054906101000a900473ffffffffffffffffffffffffffffffffffffffff1685600401546040518363ffffffff1660e01b81526004016117669291906135ed565b600060405180830381600087803b15801561178057600080fd5b505af1158015611794573d6000803e3d6000fd5b50505050611815565b6118148360090160049054906101000a900473ffffffffffffffffffffffffffffffffffffffff1684600401548560030160049054906101000a900473ffffffffffffffffffffffffffffffffffffffff1673ffffffffffffffffffffffffffffffffffffffff166125429092919063ffffffff16565b5b60008360070160006101000a81548160ff02191690831515021790555060018360070160016101000a81548160ff021916908315150217905550847f03fb57eb449654e24e1b240d3d06702cf79362a065d5c0323aee642d4702fa4b8460090160049054906101000a900473ffffffffffffffffffffffffffffffffffffffff166040516118a3919061319e565b60405180910390a2505050506118b76121a6565b50565b609760009054906101000a900473ffffffffffffffffffffffffffffffffffffffff1673ffffffffffffffffffffffffffffffffffffffff163373ffffffffffffffffffffffffffffffffffffffff161461194a576040517f08c379a000000000000000000000000000000000000000000000000000000000815260040161194190613dff565b60405180910390fd5b600085118015611960575060008463ffffffff16115b61199f576040517f08c379a000000000000000000000000000000000000000000000000000000000815260040161199690613e6b565b60405180910390fd5b609b60009054906101000a900473ffffffffffffffffffffffffffffffffffffffff1673ffffffffffffffffffffffffffffffffffffffff168373ffffffffffffffffffffffffffffffffffffffff1614611a2257611a213330848673ffffffffffffffffffffffffffffffffffffffff166125c8909392919063ffffffff16565b5b609c6000815480929190611a3590613e8b565b91905055506000609d6000609c5481526020019081526020016000209050609c5481600001819055508681600101819055508587611a739190613ed3565b8160020181905550848160030160006101000a81548163ffffffff021916908363ffffffff160217905550838160030160046101000a81548173ffffffffffffffffffffffffffffffffffffffff021916908373ffffffffffffffffffffffffffffffffffffffff16021790555082816004018190555081816005018190555060018160070160006101000a81548160ff02191690831515021790555080600001547ffea046440a535237654b6dc0aad44ef661726e4f008d135e2873c4d4c2733e558260010154836002015484600401548560030160049054906101000a900473ffffffffffffffffffffffffffffffffffffffff168660030160009054906101000a900463ffffffff168760050154604051611b9696959493929190613f38565b60405180910390a250505050505050565b609760009054906101000a900473ffffffffffffffffffffffffffffffffffffffff1681565b600080600080600080600080600080609d60008c815260200190815260200160002090508060070160009054906101000a900460ff16611c42576040517f08c379a0000000000000000000000000000000000000000000000000000000008152600401611c3990613418565b60405180910390fd5b8a816001015482600201548360030160009054906101000a900463ffffffff168460090160009054906101000a900463ffffffff168560030160049054906101000a900473ffffffffffffffffffffffffffffffffffffffff16866004015487600501548860070160019054906101000a900460ff16995099509950995099509950995099509950509193959799909294969850565b609860009054906101000a900473ffffffffffffffffffffffffffffffffffffffff1681565b609760009054906101000a900473ffffffffffffffffffffffffffffffffffffffff1673ffffffffffffffffffffffffffffffffffffffff163373ffffffffffffffffffffffffffffffffffffffff1614611d8e576040517f08c379a0000000000000000000000000000000000000000000000000000000008152600401611d8590613dff565b60405180910390fd5b600073ffffffffffffffffffffffffffffffffffffffff168173ffffffffffffffffffffffffffffffffffffffff1603611dfd576040517f08c379a0000000000000000000000000000000000000000000000000000000008152600401611df490613fe5565b60405180910390fd5b80609760006101000a81548173ffffffffffffffffffffffffffffffffffffffff021916908373ffffffffffffffffffffffffffffffffffffffff16021790555050565b73c0ffee98ad1434acbdb894bbb752e138c1006fab81565b60008060019054906101000a900460ff16159050808015611e8a5750600160008054906101000a900460ff1660ff16105b80611eb75750611e9930612651565b158015611eb65750600160008054906101000a900460ff1660ff16145b5b611ef6576040517f08c379a0000000000000000000000000000000000000000000000000000000008152600401611eed90614077565b60405180910390fd5b60016000806101000a81548160ff021916908360ff1602179055508015611f33576001600060016101000a81548160ff0219169083151502179055505b611f3b612674565b611f436126c5565b600073ffffffffffffffffffffffffffffffffffffffff168573ffffffffffffffffffffffffffffffffffffffff1603611fb2576040517f08c379a0000000000000000000000000000000000000000000000000000000008152600401611fa9906140e3565b60405180910390fd5b84609860006101000a81548173ffffffffffffffffffffffffffffffffffffffff021916908373ffffffffffffffffffffffffffffffffffffffff16021790555084609b60006101000a81548173ffffffffffffffffffffffffffffffffffffffff021916908373ffffffffffffffffffffffffffffffffffffffff16021790555083609960006101000a81548173ffffffffffffffffffffffffffffffffffffffff021916908373ffffffffffffffffffffffffffffffffffffffff16021790555082609a60006101000a81548173ffffffffffffffffffffffffffffffffffffffff021916908373ffffffffffffffffffffffffffffffffffffffff16021790555081609760006101000a81548173ffffffffffffffffffffffffffffffffffffffff021916908373ffffffffffffffffffffffffffffffffffffffff16021790555080156121505760008060016101000a81548160ff0219169083151502179055507f7f26b83ff96e1f2b6a682f133852f6798a09c465da95921460cefb38474024986001604051612147919061414b565b60405180910390a15b5050505050565b60026065540361219c576040517f08c379a0000000000000000000000000000000000000000000000000000000008152600401612193906141b2565b60405180910390fd5b6002606581905550565b6001606581905550565b60006121de7f360894a13ba1a3210667c828492db98dca3e2076cc3735a920a3ca505d382bbc60001b61271e565b60000160009054906101000a900473ffffffffffffffffffffffffffffffffffffffff16905090565b609760009054906101000a900473ffffffffffffffffffffffffffffffffffffffff1673ffffffffffffffffffffffffffffffffffffffff163373ffffffffffffffffffffffffffffffffffffffff1614612297576040517f08c379a000000000000000000000000000000000000000000000000000000000815260040161228e90613dff565b60405180910390fd5b50565b6122c67f4910fdfa16fed3260ed0e7147f7cc6da11a60208b5b9406d12a635614ffd914360001b612728565b60000160009054906101000a900460ff16156122ea576122e583612732565b612403565b8273ffffffffffffffffffffffffffffffffffffffff166352d1902d6040518163ffffffff1660e01b8152600401602060405180830381865afa92505050801561235257506040513d601f19601f8201168201806040525081019061234f91906141fe565b60015b612391576040517f08c379a00000000000000000000000000000000000000000000000000000000081526004016123889061429d565b60405180910390fd5b7f360894a13ba1a3210667c828492db98dca3e2076cc3735a920a3ca505d382bbc60001b81146123f6576040517f08c379a00000000000000000000000000000000000000000000000000000000081526004016123ed9061432f565b60405180910390fd5b506124028383836127eb565b5b505050565b60008060005b8460060180549050811015612500576000856006018281548110612435576124346135be565b5b9060005260206000200160009054906101000a900473ffffffffffffffffffffffffffffffffffffffff16905060008660080160008373ffffffffffffffffffffffffffffffffffffffff1673ffffffffffffffffffffffffffffffffffffffff16815260200190815260200160002060009054906101000a900463ffffffff1690508063ffffffff16846124ca9190613ed3565b8610156124dd578194505050505061253c565b8063ffffffff16846124ef9190613ed3565b93505050808060010191505061240e565b506040517f08c379a00000000000000000000000000000000000000000000000000000000081526004016125339061439b565b60405180910390fd5b92915050565b6125c38363a9059cbb60e01b84846040516024016125619291906135ed565b604051602081830303815290604052907bffffffffffffffffffffffffffffffffffffffffffffffffffffffff19166020820180517bffffffffffffffffffffffffffffffffffffffffffffffffffffffff8381831617835250505050612817565b505050565b61264b846323b872dd60e01b8585856040516024016125e9939291906143bb565b604051602081830303815290604052907bffffffffffffffffffffffffffffffffffffffffffffffffffffffff19166020820180517bffffffffffffffffffffffffffffffffffffffffffffffffffffffff8381831617835250505050612817565b50505050565b6000808273ffffffffffffffffffffffffffffffffffffffff163b119050919050565b600060019054906101000a900460ff166126c3576040517f08c379a00000000000000000000000000000000000000000000000000000000081526004016126ba90614464565b60405180910390fd5b565b600060019054906101000a900460ff16612714576040517f08c379a000000000000000000000000000000000000000000000000000000000815260040161270b90614464565b60405180910390fd5b61271c6128df565b565b6000819050919050565b6000819050919050565b61273b81612651565b61277a576040517f08c379a0000000000000000000000000000000000000000000000000000000008152600401612771906144f6565b60405180910390fd5b806127a77f360894a13ba1a3210667c828492db98dca3e2076cc3735a920a3ca505d382bbc60001b61271e565b60000160006101000a81548173ffffffffffffffffffffffffffffffffffffffff021916908373ffffffffffffffffffffffffffffffffffffffff16021790555050565b6127f483612938565b6000825111806128015750805b15612812576128108383612987565b505b505050565b6000612879826040518060400160405280602081526020017f5361666545524332303a206c6f772d6c6576656c2063616c6c206661696c65648152508573ffffffffffffffffffffffffffffffffffffffff166129b49092919063ffffffff16565b905060008151148061289b57508080602001905181019061289a9190613c66565b5b6128da576040517f08c379a00000000000000000000000000000000000000000000000000000000081526004016128d190614588565b60405180910390fd5b505050565b600060019054906101000a900460ff1661292e576040517f08c379a000000000000000000000000000000000000000000000000000000000815260040161292590614464565b60405180910390fd5b6001606581905550565b61294181612732565b8073ffffffffffffffffffffffffffffffffffffffff167fbc7cd75a20ee27fd9adebab32041f755214dbc6bffa90cc0225b39da2e5c2d3b60405160405180910390a250565b60606129ac8383604051806060016040528060278152602001614795602791396129cc565b905092915050565b60606129c38484600085612a52565b90509392505050565b60606000808573ffffffffffffffffffffffffffffffffffffffff16856040516129f69190614619565b600060405180830381855af49150503d8060008114612a31576040519150601f19603f3d011682016040523d82523d6000602084013e612a36565b606091505b5091509150612a4786838387612b1f565b925050509392505050565b606082471015612a97576040517f08c379a0000000000000000000000000000000000000000000000000000000008152600401612a8e906146a2565b60405180910390fd5b6000808673ffffffffffffffffffffffffffffffffffffffff168587604051612ac09190614619565b60006040518083038185875af1925050503d8060008114612afd576040519150601f19603f3d011682016040523d82523d6000602084013e612b02565b606091505b5091509150612b1387838387612b94565b92505050949350505050565b60608315612b81576000835103612b7957612b3985612651565b612b78576040517f08c379a0000000000000000000000000000000000000000000000000000000008152600401612b6f9061470e565b60405180910390fd5b5b829050612b8c565b612b8b8383612c09565b5b949350505050565b60608315612bf6576000835103612bee57612bae85612c59565b612bed576040517f08c379a0000000000000000000000000000000000000000000000000000000008152600401612be49061470e565b60405180910390fd5b5b829050612c01565b612c008383612c7c565b5b949350505050565b600082511115612c1c5781518083602001fd5b806040517f08c379a0000000000000000000000000000000000000000000000000000000008152600401612c509190614772565b60405180910390fd5b6000808273ffffffffffffffffffffffffffffffffffffffff163b119050919050565b600082511115612c8f5781518083602001fd5b806040517f08c379a0000000000000000000000000000000000000000000000000000000008152600401612cc39190614772565b60405180910390fd5b600073ffffffffffffffffffffffffffffffffffffffff82169050919050565b6000819050919050565b6000612d11612d0c612d0784612ccc565b612cec565b612ccc565b9050919050565b6000612d2382612cf6565b9050919050565b6000612d3582612d18565b9050919050565b612d4581612d2a565b82525050565b6000602082019050612d606000830184612d3c565b92915050565b6000604051905090565b600080fd5b600080fd5b6000819050919050565b612d8d81612d7a565b8114612d9857600080fd5b50565b600081359050612daa81612d84565b92915050565b600060208284031215612dc657612dc5612d70565b5b6000612dd484828501612d9b565b91505092915050565b612de681612d7a565b82525050565b6000602082019050612e016000830184612ddd565b92915050565b600063ffffffff82169050919050565b612e2081612e07565b8114612e2b57600080fd5b50565b600081359050612e3d81612e17565b92915050565b60008060408385031215612e5a57612e59612d70565b5b6000612e6885828601612d9b565b9250506020612e7985828601612e2e565b9150509250929050565b6000612e8e82612ccc565b9050919050565b612e9e81612e83565b8114612ea957600080fd5b50565b600081359050612ebb81612e95565b92915050565b600060208284031215612ed757612ed6612d70565b5b6000612ee584828501612eac565b91505092915050565b600080fd5b600080fd5b6000601f19601f8301169050919050565b7f4e487b7100000000000000000000000000000000000000000000000000000000600052604160045260246000fd5b612f4182612ef8565b810181811067ffffffffffffffff82111715612f6057612f5f612f09565b5b80604052505050565b6000612f73612d66565b9050612f7f8282612f38565b919050565b600067ffffffffffffffff821115612f9f57612f9e612f09565b5b612fa882612ef8565b9050602081019050919050565b82818337600083830152505050565b6000612fd7612fd284612f84565b612f69565b905082815260208101848484011115612ff357612ff2612ef3565b5b612ffe848285612fb5565b509392505050565b600082601f83011261301b5761301a612eee565b5b813561302b848260208601612fc4565b91505092915050565b6000806040838503121561304b5761304a612d70565b5b600061305985828601612eac565b925050602083013567ffffffffffffffff81111561307a57613079612d75565b5b61308685828601613006565b9150509250929050565b6000819050919050565b6130a381613090565b82525050565b60006020820190506130be600083018461309a565b92915050565b60006130cf82612e83565b9050919050565b6130df816130c4565b81146130ea57600080fd5b50565b6000813590506130fc816130d6565b92915050565b60008060008060008060c0878903121561311f5761311e612d70565b5b600061312d89828a01612d9b565b965050602061313e89828a01612d9b565b955050604061314f89828a01612e2e565b945050606061316089828a016130ed565b935050608061317189828a01612d9b565b92505060a061318289828a01612d9b565b9150509295509295509295565b61319881612e83565b82525050565b60006020820190506131b3600083018461318f565b92915050565b6131c281612e07565b82525050565b60008115159050919050565b6131dd816131c8565b82525050565b6000610120820190506131f9600083018c612ddd565b613206602083018b612ddd565b613213604083018a612ddd565b61322060608301896131b9565b61322d60808301886131b9565b61323a60a0830187612d3c565b61324760c0830186612ddd565b61325460e0830185612ddd565b6132626101008301846131d4565b9a9950505050505050505050565b600061327b82612d18565b9050919050565b61328b81613270565b82525050565b60006020820190506132a66000830184613282565b92915050565b60006132b782612d18565b9050919050565b6132c7816132ac565b82525050565b60006020820190506132e260008301846132be565b92915050565b6000806000806080858703121561330257613301612d70565b5b600061331087828801612eac565b945050602061332187828801612eac565b935050604061333287828801612eac565b925050606061334387828801612eac565b91505092959194509250565b600082825260208201905092915050565b7f526166666c653a20726f756e6420646f6573206e6f7420657869737400000000600082015250565b6000613396601c8361334f565b91506133a182613360565b602082019050919050565b600060208201905081810360008301526133c581613389565b9050919050565b7f526166666c653a20696e61637469766500000000000000000000000000000000600082015250565b600061340260108361334f565b915061340d826133cc565b602082019050919050565b60006020820190508181036000830152613431816133f5565b9050919050565b7f526166666c653a206e6f7420656e646564000000000000000000000000000000600082015250565b600061346e60118361334f565b915061347982613438565b602082019050919050565b6000602082019050818103600083015261349d81613461565b9050919050565b7f4e487b7100000000000000000000000000000000000000000000000000000000600052601160045260246000fd5b60006134de82612d7a565b91506134e983612d7a565b92508282026134f781612d7a565b9150828204841483151761350e5761350d6134a4565b5b5092915050565b600061352082612e07565b915061352b83612e07565b925082820261353981612e07565b915080821461354b5761354a6134a4565b5b5092915050565b7f526166666c653a207468726573686f6c64206d65740000000000000000000000600082015250565b600061358860158361334f565b915061359382613552565b602082019050919050565b600060208201905081810360008301526135b78161357b565b9050919050565b7f4e487b7100000000000000000000000000000000000000000000000000000000600052603260045260246000fd5b6000604082019050613602600083018561318f565b61360f6020830184612ddd565b9392505050565b7f526166666c653a20696e61637469766520726f756e6400000000000000000000600082015250565b600061364c60168361334f565b915061365782613616565b602082019050919050565b6000602082019050818103600083015261367b8161363f565b9050919050565b7f526166666c653a206e6f7420696e2074696d656672616d650000000000000000600082015250565b60006136b860188361334f565b91506136c382613682565b602082019050919050565b600060208201905081810360008301526136e7816136ab565b9050919050565b60006136f982612e07565b915061370483612e07565b9250828201905063ffffffff8111156137205761371f6134a4565b5b92915050565b7f526166666c653a206d6178207469636b65747320726561636865640000000000600082015250565b600061375c601b8361334f565b915061376782613726565b602082019050919050565b6000602082019050818103600083015261378b8161374f565b9050919050565b6000815190506137a181612d84565b92915050565b6000602082840312156137bd576137bc612d70565b5b60006137cb84828501613792565b91505092915050565b7f526166666c653a20696e73756666696369656e7420706f696e74730000000000600082015250565b600061380a601b8361334f565b9150613815826137d4565b602082019050919050565b60006020820190508181036000830152613839816137fd565b9050919050565b7f46756e6374696f6e206d7573742062652063616c6c6564207468726f7567682060008201527f64656c656761746563616c6c0000000000000000000000000000000000000000602082015250565b600061389c602c8361334f565b91506138a782613840565b604082019050919050565b600060208201905081810360008301526138cb8161388f565b9050919050565b7f46756e6374696f6e206d7573742062652063616c6c6564207468726f7567682060008201527f6163746976652070726f78790000000000000000000000000000000000000000602082015250565b600061392e602c8361334f565b9150613939826138d2565b604082019050919050565b6000602082019050818103600083015261395d81613921565b9050919050565b7f555550535570677261646561626c653a206d757374206e6f742062652063616c60008201527f6c6564207468726f7567682064656c656761746563616c6c0000000000000000602082015250565b60006139c060388361334f565b91506139cb82613964565b604082019050919050565b600060208201905081810360008301526139ef816139b3565b9050919050565b7f526166666c653a2072616e646f6d6e6573732072657175657374656400000000600082015250565b6000613a2c601c8361334f565b9150613a37826139f6565b602082019050919050565b60006020820190508181036000830152613a5b81613a1f565b9050919050565b6000613a6d82612d7a565b9150613a7883612d7a565b9250828203905081811115613a9057613a8f6134a4565b5b92915050565b7f526166666c653a20616c726561647920647261776e0000000000000000000000600082015250565b6000613acc60158361334f565b9150613ad782613a96565b602082019050919050565b60006020820190508181036000830152613afb81613abf565b9050919050565b7f526166666c653a20756e66696e69736865640000000000000000000000000000600082015250565b6000613b3860128361334f565b9150613b4382613b02565b602082019050919050565b60006020820190508181036000830152613b6781613b2b565b9050919050565b7f4e487b7100000000000000000000000000000000000000000000000000000000600052601260045260246000fd5b6000613ba882612d7a565b9150613bb383612d7a565b925082613bc357613bc2613b6e565b5b828204905092915050565b7f526166666c653a207468726573686f6c64206e6f74206d657400000000000000600082015250565b6000613c0460198361334f565b9150613c0f82613bce565b602082019050919050565b60006020820190508181036000830152613c3381613bf7565b9050919050565b613c43816131c8565b8114613c4e57600080fd5b50565b600081519050613c6081613c3a565b92915050565b600060208284031215613c7c57613c7b612d70565b5b6000613c8a84828501613c51565b91505092915050565b7f526166666c653a2072616e646f6d6e6573732070656e64696e67000000000000600082015250565b6000613cc9601a8361334f565b9150613cd482613c93565b602082019050919050565b60006020820190508181036000830152613cf881613cbc565b9050919050565b6000819050919050565b6000613d24613d1f613d1a84613cff565b612cec565b612d7a565b9050919050565b613d3481613d09565b82525050565b6000606082019050613d4f60008301866131b9565b613d5c6020830185613d2b565b613d696040830184612ddd565b949350505050565b600081519050613d8081612e17565b92915050565b600060208284031215613d9c57613d9b612d70565b5b6000613daa84828501613d71565b91505092915050565b7f526166666c653a206e6f74206f776e6572000000000000000000000000000000600082015250565b6000613de960118361334f565b9150613df482613db3565b602082019050919050565b60006020820190508181036000830152613e1881613ddc565b9050919050565b7f526166666c653a2062616420706172616d730000000000000000000000000000600082015250565b6000613e5560128361334f565b9150613e6082613e1f565b602082019050919050565b60006020820190508181036000830152613e8481613e48565b9050919050565b6000613e9682612d7a565b91507fffffffffffffffffffffffffffffffffffffffffffffffffffffffffffffffff8203613ec857613ec76134a4565b5b600182019050919050565b6000613ede82612d7a565b9150613ee983612d7a565b9250828201905080821115613f0157613f006134a4565b5b92915050565b6000613f22613f1d613f1884612e07565b612cec565b612d7a565b9050919050565b613f3281613f07565b82525050565b600060c082019050613f4d6000830189612ddd565b613f5a6020830188612ddd565b613f676040830187612ddd565b613f746060830186612d3c565b613f816080830185613f29565b613f8e60a0830184612ddd565b979650505050505050565b7f4f776e65723a207a65726f206164647200000000000000000000000000000000600082015250565b6000613fcf60108361334f565b9150613fda82613f99565b602082019050919050565b60006020820190508181036000830152613ffe81613fc2565b9050919050565b7f496e697469616c697a61626c653a20636f6e747261637420697320616c72656160008201527f647920696e697469616c697a6564000000000000000000000000000000000000602082015250565b6000614061602e8361334f565b915061406c82614005565b604082019050919050565b6000602082019050818103600083015261409081614054565b9050919050565b7f696e76616c6964204d696e69506f696e74730000000000000000000000000000600082015250565b60006140cd60128361334f565b91506140d882614097565b602082019050919050565b600060208201905081810360008301526140fc816140c0565b9050919050565b6000819050919050565b600060ff82169050919050565b600061413561413061412b84614103565b612cec565b61410d565b9050919050565b6141458161411a565b82525050565b6000602082019050614160600083018461413c565b92915050565b7f5265656e7472616e637947756172643a207265656e7472616e742063616c6c00600082015250565b600061419c601f8361334f565b91506141a782614166565b602082019050919050565b600060208201905081810360008301526141cb8161418f565b9050919050565b6141db81613090565b81146141e657600080fd5b50565b6000815190506141f8816141d2565b92915050565b60006020828403121561421457614213612d70565b5b6000614222848285016141e9565b91505092915050565b7f45524331393637557067726164653a206e657720696d706c656d656e7461746960008201527f6f6e206973206e6f742055555053000000000000000000000000000000000000602082015250565b6000614287602e8361334f565b91506142928261422b565b604082019050919050565b600060208201905081810360008301526142b68161427a565b9050919050565b7f45524331393637557067726164653a20756e737570706f727465642070726f7860008201527f6961626c65555549440000000000000000000000000000000000000000000000602082015250565b600061431960298361334f565b9150614324826142bd565b604082019050919050565b600060208201905081810360008301526143488161430c565b9050919050565b7f526166666c653a20696e646578206f766572666c6f7700000000000000000000600082015250565b600061438560168361334f565b91506143908261434f565b602082019050919050565b600060208201905081810360008301526143b481614378565b9050919050565b60006060820190506143d0600083018661318f565b6143dd602083018561318f565b6143ea6040830184612ddd565b949350505050565b7f496e697469616c697a61626c653a20636f6e7472616374206973206e6f74206960008201527f6e697469616c697a696e67000000000000000000000000000000000000000000602082015250565b600061444e602b8361334f565b9150614459826143f2565b604082019050919050565b6000602082019050818103600083015261447d81614441565b9050919050565b7f455243313936373a206e657720696d706c656d656e746174696f6e206973206e60008201527f6f74206120636f6e747261637400000000000000000000000000000000000000602082015250565b60006144e0602d8361334f565b91506144eb82614484565b604082019050919050565b6000602082019050818103600083015261450f816144d3565b9050919050565b7f5361666545524332303a204552433230206f7065726174696f6e20646964206e60008201527f6f74207375636365656400000000000000000000000000000000000000000000602082015250565b6000614572602a8361334f565b915061457d82614516565b604082019050919050565b600060208201905081810360008301526145a181614565565b9050919050565b600081519050919050565b600081905092915050565b60005b838110156145dc5780820151818401526020810190506145c1565b60008484015250505050565b60006145f3826145a8565b6145fd81856145b3565b935061460d8185602086016145be565b80840191505092915050565b600061462582846145e8565b915081905092915050565b7f416464726573733a20696e73756666696369656e742062616c616e636520666f60008201527f722063616c6c0000000000000000000000000000000000000000000000000000602082015250565b600061468c60268361334f565b915061469782614630565b604082019050919050565b600060208201905081810360008301526146bb8161467f565b9050919050565b7f416464726573733a2063616c6c20746f206e6f6e2d636f6e7472616374000000600082015250565b60006146f8601d8361334f565b9150614703826146c2565b602082019050919050565b60006020820190508181036000830152614727816146eb565b9050919050565b600081519050919050565b60006147448261472e565b61474e818561334f565b935061475e8185602086016145be565b61476781612ef8565b840191505092915050565b6000602082019050818103600083015261478c8184614739565b90509291505056fe416464726573733a206c6f772d6c6576656c2064656c65676174652063616c6c206661696c6564a2646970667358221220404079980a2f70003d3e8608fee5f00e058a1bd33e85270180569084f4ac666c64736f6c63430008180033",
    "linkReferences": {},
    "deployedLinkReferences": {}
}