{
  "_format": "hh-sol-artifact-1",
  "contractName": "AkibaRaffleV3",
  "sourceName": "contracts/MiniRaffleV3.sol",
  "abi": [
    {
      "inputs": [],
      "name": "Unauthorized",
      "type": "error"
    },
    {
      "anonymous": false,
      "inputs": [
        {
          "indexed": false,
          "internalType": "address",
          "name": "previousAdmin",
          "type": "address"
        },
        {
          "indexed": false,
          "internalType": "address",
          "name": "newAdmin",
          "type": "address"
        }
      ],
      "name": "AdminChanged",
      "type": "event"
    },
    {
      "anonymous": false,
      "inputs": [
        {
          "indexed": true,
          "internalType": "address",
          "name": "beacon",
          "type": "address"
        }
      ],
      "name": "BeaconUpgraded",
      "type": "event"
    },
    {
      "anonymous": false,
      "inputs": [
        {
          "indexed": false,
          "internalType": "uint8",
          "name": "version",
          "type": "uint8"
        }
      ],
      "name": "Initialized",
      "type": "event"
    },
    {
      "anonymous": false,
      "inputs": [
        {
          "indexed": true,
          "internalType": "uint256",
          "name": "roundId",
          "type": "uint256"
        },
        {
          "indexed": false,
          "internalType": "address[]",
          "name": "winners",
          "type": "address[]"
        },
        {
          "indexed": false,
          "internalType": "uint256[]",
          "name": "amounts",
          "type": "uint256[]"
        }
      ],
      "name": "MultiWinnersSelected",
      "type": "event"
    },
    {
      "anonymous": false,
      "inputs": [
        {
          "indexed": true,
          "internalType": "address",
          "name": "previousOwner",
          "type": "address"
        },
        {
          "indexed": true,
          "internalType": "address",
          "name": "newOwner",
          "type": "address"
        }
      ],
      "name": "OwnershipTransferred",
      "type": "event"
    },
    {
      "anonymous": false,
      "inputs": [
        {
          "indexed": true,
          "internalType": "uint256",
          "name": "roundId",
          "type": "uint256"
        },
        {
          "indexed": true,
          "internalType": "address",
          "name": "participant",
          "type": "address"
        },
        {
          "indexed": false,
          "internalType": "uint256",
          "name": "tickets",
          "type": "uint256"
        }
      ],
      "name": "ParticipantJoined",
      "type": "event"
    },
    {
      "anonymous": false,
      "inputs": [
        {
          "indexed": true,
          "internalType": "uint256",
          "name": "roundId",
          "type": "uint256"
        }
      ],
      "name": "RaffleClosed",
      "type": "event"
    },
    {
      "anonymous": false,
      "inputs": [
        {
          "indexed": true,
          "internalType": "uint256",
          "name": "roundId",
          "type": "uint256"
        },
        {
          "indexed": false,
          "internalType": "uint256",
          "name": "witnetBlock",
          "type": "uint256"
        }
      ],
      "name": "RandomnessRequested",
      "type": "event"
    },
    {
      "anonymous": false,
      "inputs": [
        {
          "indexed": true,
          "internalType": "uint256",
          "name": "roundId",
          "type": "uint256"
        },
        {
          "indexed": false,
          "internalType": "uint256",
          "name": "startTime",
          "type": "uint256"
        },
        {
          "indexed": false,
          "internalType": "uint256",
          "name": "endTime",
          "type": "uint256"
        },
        {
          "indexed": false,
          "internalType": "uint256",
          "name": "rewardPool",
          "type": "uint256"
        },
        {
          "indexed": false,
          "internalType": "contract IERC20",
          "name": "rewardToken",
          "type": "address"
        },
        {
          "indexed": false,
          "internalType": "uint256",
          "name": "maxTickets",
          "type": "uint256"
        },
        {
          "indexed": false,
          "internalType": "uint256",
          "name": "ticketCostPoints",
          "type": "uint256"
        },
        {
          "indexed": false,
          "internalType": "uint8",
          "name": "roundType",
          "type": "uint8"
        }
      ],
      "name": "RoundCreated",
      "type": "event"
    },
    {
      "anonymous": false,
      "inputs": [
        {
          "indexed": true,
          "internalType": "address",
          "name": "implementation",
          "type": "address"
        }
      ],
      "name": "Upgraded",
      "type": "event"
    },
    {
      "anonymous": false,
      "inputs": [
        {
          "indexed": true,
          "internalType": "uint256",
          "name": "roundId",
          "type": "uint256"
        },
        {
          "indexed": false,
          "internalType": "address",
          "name": "winner",
          "type": "address"
        },
        {
          "indexed": false,
          "internalType": "uint256",
          "name": "reward",
          "type": "uint256"
        }
      ],
      "name": "WinnerSelected",
      "type": "event"
    },
    {
      "anonymous": false,
      "inputs": [
        {
          "indexed": true,
          "internalType": "address",
          "name": "token",
          "type": "address"
        },
        {
          "indexed": true,
          "internalType": "address",
          "name": "to",
          "type": "address"
        },
        {
          "indexed": false,
          "internalType": "uint256",
          "name": "amount",
          "type": "uint256"
        }
      ],
      "name": "Withdraw",
      "type": "event"
    },
    {
      "inputs": [],
      "name": "RNG",
      "outputs": [
        {
          "internalType": "contract IWitnetRandomness",
          "name": "",
          "type": "address"
        }
      ],
      "stateMutability": "view",
      "type": "function"
    },
    {
      "inputs": [],
      "name": "cUSD",
      "outputs": [
        {
          "internalType": "contract IERC20",
          "name": "",
          "type": "address"
        }
      ],
      "stateMutability": "view",
      "type": "function"
    },
    {
      "inputs": [
        {
          "internalType": "uint256",
          "name": "_roundId",
          "type": "uint256"
        }
      ],
      "name": "closeRaffle",
      "outputs": [],
      "stateMutability": "nonpayable",
      "type": "function"
    },
    {
      "inputs": [
        {
          "internalType": "uint256",
          "name": "_startTime",
          "type": "uint256"
        },
        {
          "internalType": "uint256",
          "name": "_duration",
          "type": "uint256"
        },
        {
          "internalType": "uint32",
          "name": "_maxTickets",
          "type": "uint32"
        },
        {
          "internalType": "address",
          "name": "_token",
          "type": "address"
        },
        {
          "internalType": "uint8",
          "name": "_raffleType",
          "type": "uint8"
        },
        {
          "internalType": "uint256",
          "name": "_rewardPool",
          "type": "uint256"
        },
        {
          "internalType": "uint256",
          "name": "_ticketCostPoints",
          "type": "uint256"
        },
        {
          "internalType": "string",
          "name": "_rewardURI",
          "type": "string"
        }
      ],
      "name": "createRaffleRound",
      "outputs": [],
      "stateMutability": "nonpayable",
      "type": "function"
    },
    {
      "inputs": [
        {
          "internalType": "uint256",
          "name": "_roundId",
          "type": "uint256"
        }
      ],
      "name": "drawWinner",
      "outputs": [],
      "stateMutability": "nonpayable",
      "type": "function"
    },
    {
      "inputs": [
        {
          "internalType": "uint256",
          "name": "_roundId",
          "type": "uint256"
        }
      ],
      "name": "getActiveRound",
      "outputs": [
        {
          "internalType": "uint256",
          "name": "roundId",
          "type": "uint256"
        },
        {
          "internalType": "uint256",
          "name": "startTime",
          "type": "uint256"
        },
        {
          "internalType": "uint256",
          "name": "endTime",
          "type": "uint256"
        },
        {
          "internalType": "uint32",
          "name": "maxTickets",
          "type": "uint32"
        },
        {
          "internalType": "uint32",
          "name": "totalTickets",
          "type": "uint32"
        },
        {
          "internalType": "contract IERC20",
          "name": "rewardToken",
          "type": "address"
        },
        {
          "internalType": "uint256",
          "name": "rewardPool",
          "type": "uint256"
        },
        {
          "internalType": "uint256",
          "name": "ticketCostPoints",
          "type": "uint256"
        },
        {
          "internalType": "bool",
          "name": "winnerSelected",
          "type": "bool"
        }
      ],
      "stateMutability": "view",
      "type": "function"
    },
    {
      "inputs": [
        {
          "internalType": "address",
          "name": "_miniPoints",
          "type": "address"
        },
        {
          "internalType": "address",
          "name": "_cUSD",
          "type": "address"
        },
        {
          "internalType": "address",
          "name": "_usdt",
          "type": "address"
        },
        {
          "internalType": "address",
          "name": "prize",
          "type": "address"
        },
        {
          "internalType": "address",
          "name": "_owner",
          "type": "address"
        }
      ],
      "name": "initialize",
      "outputs": [],
      "stateMutability": "nonpayable",
      "type": "function"
    },
    {
      "inputs": [
        {
          "internalType": "address",
          "name": "_prizeNft",
          "type": "address"
        }
      ],
      "name": "initializeV3",
      "outputs": [],
      "stateMutability": "nonpayable",
      "type": "function"
    },
    {
      "inputs": [
        {
          "internalType": "uint256",
          "name": "_roundId",
          "type": "uint256"
        },
        {
          "internalType": "uint32",
          "name": "_ticketCount",
          "type": "uint32"
        }
      ],
      "name": "joinRaffle",
      "outputs": [],
      "stateMutability": "nonpayable",
      "type": "function"
    },
    {
      "inputs": [],
      "name": "miles",
      "outputs": [
        {
          "internalType": "contract IERC20",
          "name": "",
          "type": "address"
        }
      ],
      "stateMutability": "view",
      "type": "function"
    },
    {
      "inputs": [],
      "name": "miniPoints",
      "outputs": [
        {
          "internalType": "contract IMiniPoints",
          "name": "",
          "type": "address"
        }
      ],
      "stateMutability": "view",
      "type": "function"
    },
    {
      "inputs": [
        {
          "internalType": "address",
          "name": "",
          "type": "address"
        }
      ],
      "name": "minters",
      "outputs": [
        {
          "internalType": "bool",
          "name": "",
          "type": "bool"
        }
      ],
      "stateMutability": "view",
      "type": "function"
    },
    {
      "inputs": [],
      "name": "owner",
      "outputs": [
        {
          "internalType": "address",
          "name": "",
          "type": "address"
        }
      ],
      "stateMutability": "view",
      "type": "function"
    },
    {
      "inputs": [
        {
          "internalType": "uint256",
          "name": "_roundId",
          "type": "uint256"
        }
      ],
      "name": "participantsOf",
      "outputs": [
        {
          "internalType": "address[]",
          "name": "",
          "type": "address[]"
        }
      ],
      "stateMutability": "view",
      "type": "function"
    },
    {
      "inputs": [],
      "name": "prizeNFT",
      "outputs": [
        {
          "internalType": "address",
          "name": "",
          "type": "address"
        }
      ],
      "stateMutability": "view",
      "type": "function"
    },
    {
      "inputs": [],
      "name": "proxiableUUID",
      "outputs": [
        {
          "internalType": "bytes32",
          "name": "",
          "type": "bytes32"
        }
      ],
      "stateMutability": "view",
      "type": "function"
    },
    {
      "inputs": [
        {
          "internalType": "uint256",
          "name": "_roundId",
          "type": "uint256"
        }
      ],
      "name": "requestRoundRandomness",
      "outputs": [],
      "stateMutability": "payable",
      "type": "function"
    },
    {
      "inputs": [],
      "name": "roundIdCounter",
      "outputs": [
        {
          "internalType": "uint256",
          "name": "",
          "type": "uint256"
        }
      ],
      "stateMutability": "view",
      "type": "function"
    },
    {
      "inputs": [
        {
          "internalType": "address",
          "name": "who",
          "type": "address"
        },
        {
          "internalType": "bool",
          "name": "enabled",
          "type": "bool"
        }
      ],
      "name": "setMinter",
      "outputs": [],
      "stateMutability": "nonpayable",
      "type": "function"
    },
    {
      "inputs": [
        {
          "internalType": "address",
          "name": "_prizeNft",
          "type": "address"
        }
      ],
      "name": "setPrizeNft",
      "outputs": [],
      "stateMutability": "nonpayable",
      "type": "function"
    },
    {
      "inputs": [
        {
          "internalType": "uint256",
          "name": "_roundId",
          "type": "uint256"
        },
        {
          "internalType": "address",
          "name": "user",
          "type": "address"
        }
      ],
      "name": "ticketsOf",
      "outputs": [
        {
          "internalType": "uint32",
          "name": "",
          "type": "uint32"
        }
      ],
      "stateMutability": "view",
      "type": "function"
    },
    {
      "inputs": [
        {
          "internalType": "address",
          "name": "newOwner",
          "type": "address"
        }
      ],
      "name": "transferOwnership",
      "outputs": [],
      "stateMutability": "nonpayable",
      "type": "function"
    },
    {
      "inputs": [
        {
          "internalType": "address",
          "name": "newImplementation",
          "type": "address"
        }
      ],
      "name": "upgradeTo",
      "outputs": [],
      "stateMutability": "nonpayable",
      "type": "function"
    },
    {
      "inputs": [
        {
          "internalType": "address",
          "name": "newImplementation",
          "type": "address"
        },
        {
          "internalType": "bytes",
          "name": "data",
          "type": "bytes"
        }
      ],
      "name": "upgradeToAndCall",
      "outputs": [],
      "stateMutability": "payable",
      "type": "function"
    },
    {
      "inputs": [],
      "name": "usdt",
      "outputs": [
        {
          "internalType": "contract IERC20",
          "name": "",
          "type": "address"
        }
      ],
      "stateMutability": "view",
      "type": "function"
    },
    {
      "inputs": [
        {
          "internalType": "uint256",
          "name": "_roundId",
          "type": "uint256"
        }
      ],
      "name": "winnersOf",
      "outputs": [
        {
          "internalType": "address[]",
          "name": "",
          "type": "address[]"
        }
      ],
      "stateMutability": "view",
      "type": "function"
    },
    {
      "inputs": [
        {
          "internalType": "address",
          "name": "token",
          "type": "address"
        },
        {
          "internalType": "address",
          "name": "to",
          "type": "address"
        },
        {
          "internalType": "uint256",
          "name": "amount",
          "type": "uint256"
        }
      ],
      "name": "withdraw",
      "outputs": [],
      "stateMutability": "nonpayable",
      "type": "function"
    }
  ],
  "bytecode": "0x60a08060405234610031573060805261326390816100378239608051818181611b1e01528181611c1e0152611e8e0152f35b600080fdfe608080604052600436101561001357600080fd5b60003560e01c90816309c79735146128bd575080631459457a146127135780631fccf672146126ea578063234d0001146124c157806324214191146124a35780632f48ab7d1461247a5780633101cfcb146123d65780633423ce82146120f55780633659cfe614611e6a5780634f1ef28614611bcf57806352d1902d14611b0b5780635ee49b8f146119ba57806360b2a56a14610d2f57806371533fe514610d065780637509f58614610c91578063866b1be314610c415780638da5cb5b14610c18578063958d9c4614610653578063cf456ae7146105bb578063d9caed12146103ea578063df5cf2b114610344578063e200c857146102b7578063e6c81c721461028e578063e84daf0a14610265578063f2fde38b146101bb578063f46eccc41461017c5763f71492201461014857600080fd5b3461017757600036600319011261017757602060405173c0ffee98ad1434acbdb894bbb752e138c1006fab8152f35b600080fd5b34610177576020366003190112610177576001600160a01b0361019d61291f565b16600052609e602052602060ff604060002054166040519015158152f35b34610177576020366003190112610177576101d461291f565b6097546001600160a01b03808216926101ee338514612cc6565b1691821561022d5782907f8be0079c531659141344cd1fd0a4f28419497f9722a3daafe3b4186f6b6457e0600080a36001600160a01b03191617609755005b60405162461bcd60e51b815260206004820152601060248201526f27bbb732b91d103d32b9379030b2323960811b6044820152606490fd5b34610177576000366003190112610177576098546040516001600160a01b039091168152602090f35b3461017757600036600319011261017757609f546040516001600160a01b039091168152602090f35b346101775760208060031936011261017757600435600052609d8152600660406000200190604051808383829554938481520190600052836000209260005b858282106103255750505061030d92500383612979565b6103216040519282849384528301906129ec565b0390f35b85546001600160a01b03168452600195860195889550930192016102f6565b346101775760203660031901126101775761012060043580600052609d60205260ff604060002060078101549061037c838316612ad8565b600181015490600281015460038201549063ffffffff80600985015416916005600486015495015495604051998a5260208a0152604089015282166060880152608087015260018060a01b039060201c1660a086015260c085015260e084015260081c161515610100820152f35b346101775760603660031901126101775761040361291f565b61040b612909565b6044359060018060a01b0361042581609754163314612cc6565b808216938415610580578315610543571691604051916370a0823160e01b83523060048401526020928381602481885afa9081156105375760009161050a575b508460005260a0845260406000205480821191826104f6575b5050156104bc57906104b3817f9b1bfa7fa9ee420a16e124f794c35ac9f90472acc99140eb2f6447c714cad8eb949386612eb8565b604051908152a3005b60405162461bcd60e51b815260048101849052601260248201527115da5d1a191c985dce881c995cd95c9d995960721b6044820152606490fd5b6105009250612ca1565b821115868061047e565b90508381813d8311610530575b6105218183612979565b81010312610177575186610465565b503d610517565b6040513d6000823e3d90fd5b60405162461bcd60e51b815260206004820152601560248201527415da5d1a191c985dce881e995c9bc8185b5bdd5b9d605a1b6044820152606490fd5b60405162461bcd60e51b81526020600482015260136024820152722bb4ba34323930bb9d103d32b9379030b2323960691b6044820152606490fd5b34610177576040366003190112610177576105d461291f565b60243590811515809203610177576097546001600160a01b0391906105fc9083163314612cc6565b16801561062257600052609e60205260406000209060ff80198354169116179055600080f35b60405162461bcd60e51b81526020600482015260096024820152682d32b9379030b2323960b91b6044820152606490fd5b346101775761010036600319011261017757604480359063ffffffff821682036101775761067f612935565b6084359060ff821682036101775760e4356001600160401b0381116101775736602382011215610177576106bd9036906024816004013591016129b5565b9260018060a01b036097541633141580610bff575b610bee57602435151580610bdf575b15610ba6574260043510610b6a576001600160a01b03821615610b3157600360ff841611610aed57600360ff8416141580610ae3575b610a8757609b546001600160a01b038381169116141580610a6f575b6109ea575b50610744609c54612d13565b9384609c5584600052609d60205260406000209485556004356001860155610770602435600435612d06565b600286015560038501805463ffffffff19811663ffffffff841617909155609f549091906001600160a01b038481169116146109c9575050600384018054640100000000600160c01b03191660209290921b640100000000600160c01b03169190911790555b60a435600484015560c435600584015560ff60078401918119926001848254161790551690600c8401541617600c8301558051906001600160401b0382116109b3578190610827600d850154612d22565b601f8111610960575b50602090601f83116001146108ee576000926108e3575b50508160011b916000199060031b1c191617600d8201555b7f452eb14dda7e8bf2507d69049b0adbe025e32286bd6398252780fc0edaefbf1a60e082549260018101549060028101549063ffffffff600482015460038301549060ff600c600586015495015416946040519687526020870152604086015260018060a01b038160201c16606086015216608084015260a083015260c0820152a2005b015190508380610847565b9250600d84016000526020600020906000935b601f1984168510610945576001945083601f1981161061092c575b505050811b01600d82015561085f565b015160001960f88460031b161c1916905583808061091c565b81810151835560209485019460019093019290910190610901565b909150600d84016000526020600020601f840160051c8101602085106109ac575b90849392915b601f830160051c8201811061099d575050610830565b60008155859450600101610987565b5080610981565b634e487b7160e01b600052604160045260246000fd5b63ffffffff91925016906001600160401b0360c01b161760038401556107d6565b604051906323b872dd60e01b6020830152336024830152309082015260a4356064820152606481528060a08101106001600160401b0360a0830111176109b35760a08101604052610a44906001600160a01b038316613041565b60018060a01b03811660005260a06020526040600020610a6760a4358254612d06565b905584610738565b50609f546001600160a01b0383811691161415610733565b6084907f526166666c653a2030205265776172647320666f72204469676974616c2043616040519162461bcd60e51b835260206004840152602f60248401528201526e73682f4d696c657320526166666c6560881b6064820152fd5b5060a43515610717565b6064907f526166666c653a207479706520756e737570706f7274656400000000000000006040519162461bcd60e51b83526020600484015260186024840152820152fd5b606490712930b33336329d103d32b937903a37b5b2b760711b6040519162461bcd60e51b83526020600484015260126024840152820152fd5b60649074149859999b194e881cdd185c9d081a5b881c185cdd605a1b6040519162461bcd60e51b83526020600484015260156024840152820152fd5b60649071526166666c653a2062616420706172616d7360701b6040519162461bcd60e51b83526020600484015260126024840152820152fd5b5063ffffffff851615156106e1565b6040516282b42960e81b8152600490fd5b5033600052609e60205260ff60406000205416156106d2565b34610177576000366003190112610177576097546040516001600160a01b039091168152602090f35b3461017757602036600319011261017757610c8f610c5d61291f565b610c7260018060a01b03609754163314612cc6565b60018060a01b03166001600160601b0360a01b609f541617609f55565b005b346101775760208060031936011261017757600435600052609d8152600b60406000200190604051808383829554938481520190600052836000209260005b85828210610ce75750505061030d92500383612979565b85546001600160a01b0316845260019586019588955093019201610cd0565b3461017757600036600319011261017757609b546040516001600160a01b039091168152602090f35b3461017757602036600319011261017757610d48612dbc565b600435600052609d602052610d636040600020541515612a8c565b600435600052609d602052604060002060ff6007820154610d85828216612b42565b60081c1661197d57600281015442118015611963575b1561192957600381015463ffffffff81166014810290808204601414901517156111a4576064900463ffffffff600984015416106118e457600a820154801515908161186d575b501561182857609b546001600160a01b0360209290921c821691168114158061181f575b6117f9575b50600c8101805460ff1680610ff657505063ffffffff600982015416600a820154604051916324cbbfc160e01b8352600483015260006024830152604482015260208160648173c0ffee98ad1434acbdb894bbb752e138c1006fab5afa90811561053757610e899163ffffffff91600091610fc7575b501682612f8b565b90610e9782600b8301612b9f565b60078101805461ffff19166101001790556003810154609b5460209190911c6001600160a01b0390811691168103610f8c57506098546004820154906001600160a01b0316803b15610177576040516340c10f1960e01b81526001600160a01b038516600482015260248101929092526000908290604490829084905af18015610537577ffee5b04775e1cd2311ed22cd00f5d2403aff38ff6f71d6d393f51854ed6bc98692610f7292600492610f7d575b505b0154604080516001600160a01b039095168552602085019190915260043593918291820190565b0390a25b6001606555005b610f869061294b565b85610f49565b600482610fc2610f729386847ffee5b04775e1cd2311ed22cd00f5d2403aff38ff6f71d6d393f51854ed6bc98697015491612eb8565b610f4b565b610fe9915060203d602011610fef575b610fe18183612979565b810190612e12565b84610e81565b503d610fd7565b600181149081156117ee575b50156115fe575460ff16600181036115285750604051608081018181106001600160401b038211176109b357604052600381526060366020830137601461106082603261104e82612e45565b52601e61105a82612e52565b52612e62565b525b61106c8151612e86565b6000805b8351808310908161150b575b50156111ba5763ffffffff6009860154166001820182116111a457600a860154604051916324cbbfc160e01b83526004830152600183016024830152604482015260208160648173c0ffee98ad1434acbdb894bbb752e138c1006fab5afa908115610537576110fb9163ffffffff91600091611185575b501686612f8b565b6000805b848110611156575b501561111d575b5061111890612d13565b611070565b90916111189161114f919061114a906001600160a01b0381166111408489612e72565b52600b8901612b9f565b612d13565b919061110e565b6001600160a01b038381169061116c8389612e72565b51161461117b576001016110ff565b5050600187611107565b61119e915060203d602011610fef57610fe18183612979565b886110f3565b634e487b7160e01b600052601160045260246000fd5b50909281156114c6576000805b8381106114a057506111d883612e2e565b936111e66040519586612979565b8385526111f284612e2e565b601f1901366020870137600090600185036113e957505050600481015461121884612e45565b525b60078101805461ffff19166101001790556003810154609b546001600160a01b0390811660209290921c1603611399575060005b81811061131457505b61126081612e86565b9060005b8181106112ec575050909150611285604051916040835260408301906129ec565b81810360208301526020808451928381520193019060005b8181106112d657505050807f6f2086a232e2eb114d9bb965c9edf2040c10252db76bd117307631c4bfc82b4091600435930390a2610f76565b825185526020948501949092019160010161129d565b6001906001600160a01b036113018288612e72565b511661130d8286612e72565b5201611264565b6098546001600160a01b03908116919061132e8287612e72565b511661133a8286612e72565b51833b15610177576040516340c10f1960e01b81526001600160a01b039290921660048301526024820152916000908390604490829084905af19182156105375760019261138a575b500161124e565b6113939061294b565b85611383565b60005b8281106113aa575050611257565b6003820154600191906113e39060201c6001600160a01b03908116906113d0848a612e72565b51166113dc8489612e72565b5191612eb8565b0161139c565b9091939294956000936004870154935b60001982018281116111a4578610156114735761ffff6114258161141d8988612e72565b511687612b17565b918189161561145d57600192611455928a169004611443898d612e72565b5261144e888c612e72565b5190612d06565b9501946113f9565b634e487b7160e01b600052601260045260246000fd5b925094509594925061148491612ca1565b60001983018381116111a45761149a9085612e72565b5261121a565b9061ffff9081806114b18589612e72565b51169116019081116111a457906001016111c7565b60405162461bcd60e51b815260206004820152601960248201527f526166666c653a206e6f20756e697175652077696e6e657273000000000000006044820152606490fd5b80915060041b90808204601014901517156111a45781108661107c565b6002036115b95760405160c081018181106001600160401b038211176109b3576040526005815260a036602083013780603261156382612e45565b52601961156f82612e52565b52600f61157b82612e62565b528051600310156115a357600a60808201528051600410156115a35760a0600a910152611062565b634e487b7160e01b600052603260045260246000fd5b60405162461bcd60e51b815260206004820152601a60248201527f526166666c653a20696e76616c696420726166666c65547970650000000000006044820152606490fd5b5063ffffffff600982015416600a820154604051916324cbbfc160e01b8352600483015260006024830152604482015260208160648173c0ffee98ad1434acbdb894bbb752e138c1006fab5afa9081156105375761166b9163ffffffff91600091610fc757501682612f8b565b61167881600b8401612b9f565b60078201805461ffff1916610100179055609f546040516303a9a7b360e41b81526001600160a01b039283166004808301829052356001600160401b0316602483015260006044830181905260806064840152600d90950180549195929493909316928492916116e781612d22565b9182608486015260a4916001811690816000146117c55750600114611787575b505050918160008160209503925af180156105375761175c575b50604051908152600160208201527ffee5b04775e1cd2311ed22cd00f5d2403aff38ff6f71d6d393f51854ed6bc986604060043592a2610f76565b602090813d8311611780575b6117728183612979565b810103126101775781611721565b503d611768565b6000908152602081209093505b8284106117ac57505050810160a40181600081611707565b8054848801830152869450602090930192600101611794565b60ff191660a48088019190915293151560051b8601909301935084925060009150829050611707565b600291501483611002565b60048201549060005260a06020526118176040600020918254612ca1565b905581610e0b565b50801515610e06565b60405162461bcd60e51b815260206004820152601a60248201527f526166666c653a2072616e646f6d6e6573732070656e64696e670000000000006044820152606490fd5b9050604051906326f21bfb60e21b8252600482015260208160248173c0ffee98ad1434acbdb894bbb752e138c1006fab5afa908115610537576000916118b5575b5083610de2565b6118d7915060203d6020116118dd575b6118cf8183612979565b810190612cae565b836118ae565b503d6118c5565b60405162461bcd60e51b815260206004820152601960248201527f526166666c653a207468726573686f6c64206e6f74206d6574000000000000006044820152606490fd5b60405162461bcd60e51b8152602060048201526012602482015271149859999b194e881d5b999a5b9a5cda195960721b6044820152606490fd5b5063ffffffff806009830154169060038301541614610d9b565b60405162461bcd60e51b81526020600482015260156024820152742930b33336329d1030b63932b0b23c90323930bbb760591b6044820152606490fd5b602080600319360112610177576004359081600052609d81526119e36040600020541515612a8c565b81600052609d8152600a604060002001908154611ac7576040516334cd994560e11b815281816004813473c0ffee98ad1434acbdb894bbb752e138c1006fab5af190811561053757600091611a9a575b50438355348110611a6c575b507f3d94fecedaa4f90b8bd459797adb95f5bb11426025c5541390d9ccc1ad1b60a19154604051908152a2005b60008080611a7b819434612ca1565b818115611a91575b3390f1156105375783611a3f565b506108fc611a83565b90508181813d8311611ac0575b611ab18183612979565b81010312610177575184611a33565b503d611aa7565b6064906040519062461bcd60e51b82526004820152601c60248201527f526166666c653a2072616e646f6d6e65737320726571756573746564000000006044820152fd5b34610177576000366003190112610177577f00000000000000000000000000000000000000000000000000000000000000006001600160a01b03163003611b645760206040516000805160206132378339815191528152f35b60405162461bcd60e51b815260206004820152603860248201527f555550535570677261646561626c653a206d757374206e6f742062652063616c60448201527f6c6564207468726f7567682064656c656761746563616c6c00000000000000006064820152608490fd5b604036600319011261017757611be361291f565b6024356001600160401b038111610177573660238201121561017757611c139036906024816004013591016129b5565b906001600160a01b037f0000000000000000000000000000000000000000000000000000000000000000811690611c4c30831415612bdf565b611c69600080516020613237833981519152928284541614612c40565b611c7881609754163314612cc6565b7f4910fdfa16fed3260ed0e7147f7cc6da11a60208b5b9406d12a635614ffd91435460ff1615611cae575050610c8f9150612efb565b6040516352d1902d60e01b81526020939291831691908481600481865afa60009181611e3b575b50611d365760405162461bcd60e51b815260048101869052602e60248201527f45524331393637557067726164653a206e657720696d706c656d656e7461746960448201526d6f6e206973206e6f74205555505360901b6064820152608490fd5b03611de457611d4482612efb565b7fbc7cd75a20ee27fd9adebab32041f755214dbc6bffa90cc0225b39da2e5c2d3b600080a2825115801590611ddc575b611d7a57005b600080610c8f9460405194611d8e8661295e565b602786527f416464726573733a206c6f772d6c6576656c2064656c65676174652063616c6c81870152660819985a5b195960ca1b604087015281519101845af4611dd6613132565b91613162565b506001611d74565b60405162461bcd60e51b815260048101849052602960248201527f45524331393637557067726164653a20756e737570706f727465642070726f786044820152681a58589b195555525160ba1b6064820152608490fd5b9091508581813d8311611e63575b611e538183612979565b8101031261017757519087611cd5565b503d611e49565b346101775760208060031936011261017757611e8461291f565b6001600160a01b037f000000000000000000000000000000000000000000000000000000000000000081169290611ebd30851415612bdf565b611eda600080516020613237833981519152948286541614612c40565b611ee981609754163314612cc6565b60405193828501918583106001600160401b038411176109b357826040526000865260ff7f4910fdfa16fed3260ed0e7147f7cc6da11a60208b5b9406d12a635614ffd91435416600014611f455750505050610c8f9150612efb565b84939416906040516352d1902d60e01b81528581600481865afa600091816120c6575b50611fc95760405162461bcd60e51b815260048101879052602e60248201527f45524331393637557067726164653a206e657720696d706c656d656e7461746960448201526d6f6e206973206e6f74205555505360901b6064820152608490fd5b0361206f57611fd783612efb565b7fbc7cd75a20ee27fd9adebab32041f755214dbc6bffa90cc0225b39da2e5c2d3b600080a2835115801590612067575b61200d57005b60008091610c8f957f416464726573733a206c6f772d6c6576656c2064656c65676174652063616c6c604051966120438861295e565b60278852870152660819985a5b195960ca1b60408701525190845af4611dd6613132565b506000612007565b60405162461bcd60e51b815260048101859052602960248201527f45524331393637557067726164653a20756e737570706f727465642070726f786044820152681a58589b195555525160ba1b6064820152608490fd5b9091508681813d83116120ee575b6120de8183612979565b8101031261017757519088611f68565b503d6120d4565b34610177576040366003190112610177576004356024359063ffffffff91828116928382036101775782600052602090609d82526121396040600020541515612a8c565b612141612dbc565b83600052609d825260406000209261215f60ff600786015416612b42565b6001840154421015806123c8575b156123835760098401916121848282855416612b87565b818060038801541691161161233e576121a1876005870154612b17565b9460018060a01b03609854166040516370a0823160e01b81523360048201528681602481855afa801561053757889160009161230d575b50106122c857803b1561017757604051632770a7eb60e21b815233600482015260248101979097526000908790604490829084905af1958615610537577f338e0cd33c4e120afcd73f43f082fd8940ed67ac35180d278d2eb4f3ed51d92e966122b9575b506008810190336000528186528260406000205416156122a5575b503360005284526040600020908154918161227485828616612b87565b1663ffffffff1980941617905561228f845493828516612b87565b1691161790556040519384523393a36001606555005b6122b3906006339101612b9f565b88612257565b6122c29061294b565b8861223c565b60405162461bcd60e51b815260048101879052601b60248201527f526166666c653a20696e73756666696369656e7420706f696e747300000000006044820152606490fd5b809250888092503d8311612337575b6123268183612979565b81010312610177578790518b6121d8565b503d61231c565b60405162461bcd60e51b815260048101859052601b60248201527f526166666c653a206d6178207469636b657473207265616368656400000000006044820152606490fd5b60405162461bcd60e51b815260048101849052601860248201527f526166666c653a206e6f7420696e2074696d656672616d6500000000000000006044820152606490fd5b50600284015442111561216d565b34610177576020366003190112610177576124356123f261291f565b61010360005460ff8160081c16158061246d575b61240f90612a29565b61ffff19161760005560018060a01b03166001600160601b0360a01b609f541617609f55565b61ff0019600054166000557f7f26b83ff96e1f2b6a682f133852f6798a09c465da95921460cefb3847402498602060405160038152a1005b50600360ff821610612406565b3461017757600036600319011261017757609a546040516001600160a01b039091168152602090f35b34610177576000366003190112610177576020609c54604051908152f35b3461017757602080600319360112610177576004356124de612dbc565b80600052609d82526124f66040600020541515612a8c565b80600052609d8252604060002090600782019283549361251860ff8616612ad8565b60028401544211156126b15763ffffffff9060648260098701541602958287169687036111a45760039683600388015416906014820291808304601414901517156111a45710156126745760ff1916905591926008810192906006810160005b81548110156126475761258b8183612b2a565b90546001600160a01b03918a1b1c8116600081815288885260409020549192918616806125bf575b50506001915001612578565b60058601546125cd91612b17565b9260985416803b15610177576040516340c10f1960e01b81526001600160a01b038316600482015260248101949094526000908490604490829084905af192831561053757600193612638575b50600052868652604060002063ffffffff19815416905589806125b3565b6126419061294b565b8a61261a565b867f2a7d48246875b5f17dc9944def25fc8fe90e524ca2165e290ffdc0e44a0bf8b6600080a26001606555005b60405162461bcd60e51b8152600481018590526015602482015274149859999b194e881d1a1c995cda1bdb19081b595d605a1b6044820152606490fd5b60405162461bcd60e51b8152600481018390526011602482015270149859999b194e881b9bdd08195b991959607a1b6044820152606490fd5b34610177576000366003190112610177576099546040516001600160a01b039091168152602090f35b346101775760a03660031901126101775761272c61291f565b612734612909565b6001600160a01b03604435818116929083900361017757612753612935565b9160843592818416809403610177576000549460ff8660081c1615958680976128b0575b8015612899575b61278790612a29565b60ff19811660011760005586612887575b5082600054976127bf60ff8a60081c166127b181612d5c565b6127ba81612d5c565b612d5c565b60016065551693841561284d5783906001600160601b0360a01b958087609854161760985586609b541617609b551684609954161760995583609a541617609a551681609f541617609f55609754161760975561281857005b61ff0019166000557f7f26b83ff96e1f2b6a682f133852f6798a09c465da95921460cefb3847402498602060405160018152a1005b60405162461bcd60e51b8152602060048201526012602482015271696e76616c6964204d696e69506f696e747360701b6044820152606490fd5b61ffff19166101011760005587612798565b50303b15801561277e575060ff811660011461277e565b50600160ff821610612777565b34610177576040366003190112610177576020906128d9612909565b600435600052609d835260086040600020019060018060a01b0316600052825263ffffffff604060002054168152f35b602435906001600160a01b038216820361017757565b600435906001600160a01b038216820361017757565b606435906001600160a01b038216820361017757565b6001600160401b0381116109b357604052565b606081019081106001600160401b038211176109b357604052565b90601f801991011681019081106001600160401b038211176109b357604052565b6001600160401b0381116109b357601f01601f191660200190565b9291926129c18261299a565b916129cf6040519384612979565b829481845281830111610177578281602093846000960137010152565b90815180825260208080930193019160005b828110612a0c575050505090565b83516001600160a01b0316855293810193928101926001016129fe565b15612a3057565b60405162461bcd60e51b815260206004820152602e60248201527f496e697469616c697a61626c653a20636f6e747261637420697320616c72656160448201526d191e481a5b9a5d1a585b1a5e995960921b6064820152608490fd5b15612a9357565b60405162461bcd60e51b815260206004820152601c60248201527f526166666c653a20726f756e6420646f6573206e6f74206578697374000000006044820152606490fd5b15612adf57565b60405162461bcd60e51b815260206004820152601060248201526f526166666c653a20696e61637469766560801b6044820152606490fd5b818102929181159184041417156111a457565b80548210156115a35760005260206000200190600090565b15612b4957565b60405162461bcd60e51b8152602060048201526016602482015275149859999b194e881a5b9858dd1a5d99481c9bdd5b9960521b6044820152606490fd5b91909163ffffffff808094169116019182116111a457565b8054680100000000000000008110156109b357612bc191600182018155612b2a565b60018060a09493941b038084549260031b9316831b921b1916179055565b15612be657565b60405162461bcd60e51b815260206004820152602c60248201527f46756e6374696f6e206d7573742062652063616c6c6564207468726f7567682060448201526b19195b1959d85d1958d85b1b60a21b6064820152608490fd5b15612c4757565b60405162461bcd60e51b815260206004820152602c60248201527f46756e6374696f6e206d7573742062652063616c6c6564207468726f7567682060448201526b6163746976652070726f787960a01b6064820152608490fd5b919082039182116111a457565b90816020910312610177575180151581036101775790565b15612ccd57565b60405162461bcd60e51b81526020600482015260116024820152702930b33336329d103737ba1037bbb732b960791b6044820152606490fd5b919082018092116111a457565b60001981146111a45760010190565b90600182811c92168015612d52575b6020831014612d3c57565b634e487b7160e01b600052602260045260246000fd5b91607f1691612d31565b15612d6357565b60405162461bcd60e51b815260206004820152602b60248201527f496e697469616c697a61626c653a20636f6e7472616374206973206e6f74206960448201526a6e697469616c697a696e6760a81b6064820152608490fd5b600260655414612dcd576002606555565b60405162461bcd60e51b815260206004820152601f60248201527f5265656e7472616e637947756172643a207265656e7472616e742063616c6c006044820152606490fd5b90816020910312610177575163ffffffff811681036101775790565b6001600160401b0381116109b35760051b60200190565b8051156115a35760200190565b8051600110156115a35760400190565b8051600210156115a35760600190565b80518210156115a35760209160051b010190565b90612e9082612e2e565b612e9d6040519182612979565b8281528092612eae601f1991612e2e565b0190602036910137565b60405163a9059cbb60e01b60208201526001600160a01b03929092166024830152604480830193909352918152612ef991612ef4606483612979565b613041565b565b803b15612f305760008051602061323783398151915280546001600160a01b0319166001600160a01b03909216919091179055565b60405162461bcd60e51b815260206004820152602d60248201527f455243313936373a206e657720696d706c656d656e746174696f6e206973206e60448201526c1bdd08184818dbdb9d1c9858dd609a1b6064820152608490fd5b9091600090815b6006840180548410156130035783612fa991612b2a565b905460039190911b1c6001600160a01b0316600081815260088601602052604090205463ffffffff169190612fde8383612d06565b8710612ff95750600191612ff191612d06565b920191612f92565b9450505092505090565b60405162461bcd60e51b8152602060048201526016602482015275526166666c653a20696e646578206f766572666c6f7760501b6044820152606490fd5b60408051908101916001600160a01b03166001600160401b038311828410176109b3576130aa926040526000806020958685527f5361666545524332303a206c6f772d6c6576656c2063616c6c206661696c656487860152868151910182855af1611dd6613132565b80519082821592831561311a575b505050156130c35750565b6084906040519062461bcd60e51b82526004820152602a60248201527f5361666545524332303a204552433230206f7065726174696f6e20646964206e6044820152691bdd081cdd58d8d9595960b21b6064820152fd5b61312a9350820181019101612cae565b3882816130b8565b3d1561315d573d906131438261299a565b916131516040519384612979565b82523d6000602084013e565b606090565b919290156131c45750815115613176575090565b3b1561317f5790565b60405162461bcd60e51b815260206004820152601d60248201527f416464726573733a2063616c6c20746f206e6f6e2d636f6e74726163740000006044820152606490fd5b8251909150156131d75750805190602001fd5b6040519062461bcd60e51b82528160208060048301528251908160248401526000935b82851061321d575050604492506000838284010152601f80199101168101030190fd5b84810182015186860160440152938101938593506131fa56fe360894a13ba1a3210667c828492db98dca3e2076cc3735a920a3ca505d382bbca164736f6c6343000818000a",
  "linkReferences": {},
  "deployedLinkReferences": {}
}